:10000000FC7F00202D0600001D06000021060000D8
:1000100000000000000000000000000000000000E0
:1000200000000000000000000000000025060000A5
:100030000000000000000000290600007507000015
:1000400010B5064C2378002B07D1054B002B02D0AE
:10005000044800E000BF0123237010BD5C000020B5
:10006000000000001419000008B5084B002B03D055
:100070000748084900E000BF07480368002B03D089
:10008000064B002B00D0984708BDC046000000007A
:10009000141900006000002058000020000000003B
:1000A000154A164B1178002909D115491878097895
:1000B0004118C9B21970802012490005C861117831
:1000C0000131C9B211701978F02902D819780929BB
:1000D00009D80B4908784042C0B2087018780978EE
:1000E0004118C9B2197012781B789A4203D1802244
:1000F000044B1205DA6170477800002001000020EF
:10010000000000200028004010B5C3699C07FCD403
:1001100003680224A3430360C46901231C42FBD18A
:100120000468234303600368DC07FCD4C46901232B
:100130001C42FBD1C469DC401C42F7D1084B1A4376
:100140000260C3695A07FCD4C0239B0243608181CB
:10015000C3699C07FCD4036802221343036010BDEB
:1001600004000040037EDA07FCD5018570470000DB
:10017000027E01235107FBD5428B1A4207D1428BE5
:10018000DA401A4203D1428B92081A4202D0034B42
:1001900001221A70008DC0B27047C046790000205D
:1001A00070B50368041C988B1A1C0821FF320842A2
:1001B00026D0802099839872112353704021144BCC
:1001C000917150715E68134DC0202E40800506432A
:1001D0005E605E693540284358610F4818600F48DB
:1001E00018615D680E4828408025AD02284358609C
:1001F0005868800B8003586000235171237105E01B
:10020000137ADA0602D5201C00F0EEFA207970BDD0
:1002100098010020FFFFFF8F9800002018010020A8
:10022000FF3F00F0002303714371044B01608360C2
:100230000B78022213430B707047C046A1010000E7
:1002400038B5384B01229969062411439961364B20
:10025000197811431970354B0F211878884318709D
:1002600018782043187032480478224302701A78B4
:10027000114019701A7860210A431A702D4B4022E0
:100280001A601A685106FCD58223DB051A78012111
:100290000A431A709A78D407FCD427480368590B8C
:1002A0001F231940994200D1052182221940D2050D
:1002B0008C01158D21492940214311850468A10C29
:1002C0000B401F2B00D11D23148D1F210B408C438D
:1002D0002343138502680723D20D1A40191C9A4242
:1002E00000D103228223DB050A40188D1103144A32
:1002F00002400A431A8519787F220A401A701A7838
:10030000042110480A431A7058621A890C218A4342
:100310001A811A8901218A431A810021802201F061
:1003200074F938BD00040040582800403C280040C3
:100330005928004090180040186080003FF8FFFFE7
:10034000FF8FFFFF98010020F7B5141C1F4A5F01C3
:1003500001971D1CD319061C5869271C4000400F2B
:1003600003301033C74006D00F1C80225968120694
:100370000A435A6009E02F1C7B1E9F41144BBF01AA
:10038000FF18381C221C01F037F901990F48083575
:1003900042181761131C5269A104920B890C920335
:1003A0000A435A6159690B4A0A405A616B01F318B2
:1003B0000222DA715979802252420A435A716B0142
:1003C000F318DB799A07FAD5201CFEBD98010020AE
:1003D00018010020FF3F00F0F8B51A4E051C3378D5
:1003E000141C002B12D1184B184A1A645A6C920B29
:1003F00092035A64586C164A02405A64A2235B0066
:10040000EA5C40200243EA54012333704827FF3757
:10041000EA5D0123134012D00B4B5A6C9204920CEC
:10042000A24202D25C6CA404A40C081C221C074942
:1004300001F0E2F80123EB550023337000E01C1CAF
:10044000201CF8BD7A00002098010020D800002070
:10045000FF3F00F0FF3083792022002900D11022D5
:100460001343837170470000084BFF305A69920BA9
:1004700092035A6102230372827980235B42134301
:100480008371037A9A07FCD57047C0469801002013
:1004900080235B421943C9B28172704770B5A023B3
:1004A00003225B00C254134B134A5C6CC0211440FE
:1004B00089050C4346255C64FF35402444550F4DA7
:1004C00030261D6490256D0046555D6B154029430F
:1004D000922559636D0080214155094D1D63B0255A
:1004E0006D0044555C6F22405A67B2235B00C154D3
:1004F00070BDC04698010020FFFFFF8FD80000208C
:1005000058010020024B5A68024B1A42FAD1704738
:1005100000180040FD070000024B1A780E231A4213
:10052000FAD17047380C004070B52D4B80215A68C5
:100530002C4D0A435A605A6804210A435A606B6979
:10054000402213436B618023DB0501229A719A7864
:1005500002210A439A70997901221142FBD080232B
:10056000214CDB059A7122702378D90704D51E4BE4
:100570005A681E4B1A42F7D11D4B1E4A02215A617E
:100580005A690A435A61DA68D107FCD51A4B1B4EE7
:10059000F362FFF7C1FF1A4A002333631370FFF7BA
:1005A000BBFF184B02221A70FFF7B6FF164B134E13
:1005B0001B789A07FAD5154B2362FFF7A3FF337D0B
:1005C0000C229343042213433375114BE362FFF76C
:1005D00099FF104B104A1A6001232B7170BDC04661
:1005E000004000410004004000180040FD070000EA
:1005F000001000401C040000710B0000000C0040C3
:10060000340C0040280C00403C0C00400803020061
:100610000601010000000000006CDC020EBEFEE7D7
:100620000DBEFEE705BEFEE702BEFEE70E4A0F481E
:1006300038B5824204D10E4A0E4B93420ED10AE0E5
:100640000D4C9442F7D00023D1188842F3D9E558D5
:1006500004330D60F8E700F011F804E09342FAD299
:10066000002102C3FAE7FEE7000000205C00002042
:10067000A80300205C0000201819000038B5324B98
:100680001A681C1C013221D0304A191D1160D9B2E0
:1006900000291BD12E4A1078012210402D4A0AD180
:1006A00015682D498D4201D110600FE011602B4972
:1006B00001390029FCD11160226882F30888FF22E9
:1006C0009343274A9360204B5B681847FFF72CFF42
:1006D00062B600F0C5FD00F053F8224B80221205EF
:1006E0009A609A609A619A609A611F4B1F4A041C33
:1006F0005A601B4AC021106A09060002000A014321
:10070000116200229A6007221A60A368201C984791
:10071000174B002801D001221A701A78002A05D040
:10072000002000F091FA00F017FBFCE71B78002B8B
:10073000EBD100F003FE0028E7D0012000F084FA9E
:1007400000F00AFBFCE7C046002000001802002071
:1007500000080040FC7F00203581730748E8010055
:1007600000ED00E00028004010E000E0E70300009A
:100770007B00002008B5FFF793FC00F0C9FA08BD24
:1007800010B58223054CDB052360FFF759FD201CC3
:100790002168FFF747FD201C10BDC0461C02002049
:1007A00070B5051CC0B0081C161C0C1C00F035FFF1
:1007B00040006A460323023053701070760801230C
:1007C000E218013A11785A00002906D1281C69461E
:1007D0000023FFF7B9FD40B070BDB342F6DA6846BA
:1007E00081520133ECE70000F7B5BA4A0468137888
:1007F000B949271CFF37051C102038720B7053783D
:10080000B648B74E037093783380D17833880902A5
:100810000B4333801179B34B198051791888090241
:10082000084318809079B0490880D279088812026C
:1008300002430A8040227A71A84F3A78A64F1202EA
:1008400038780F1C0243A9488446181C624500D121
:10085000C2E020DC802149008A4200D16EE109DC3F
:10086000812A00D192E0822A00D195E0802A00D02E
:1008700064E18BE081235B009A4200D1CFE000DA93
:1008800058E1C0239B009A4200D157E1984B9A420D
:1008900000D14FE152E190231B019A4269D015DC4F
:1008A000D023DB009A4222D088231B019A4269D0D0
:1008B000A023DB009A4200D040E1201CFFF7D4FDCA
:1008C0003188286889B2FFF7E3FD3BE1894B9A4202
:1008D00000D12FE100DC31E1874B9A4200D11DE1CC
:1008E000864B9A4200D029E133886B7122E133882C
:1008F0001B0A012B08D10B8812222868934201D8C9
:100900000A8892B27E4911E133881B0A022B08D172
:100910000B8843222868934201D80A8892B2794909
:1009200004E133881B0A032B00D007E13388DBB2D4
:10093000012B17D0002B07D0022B00D0FEE00A8835
:100940002868D2B2704911E0042201A86F4900F072
:1009500053FE3B8804222868934201D83A8892B219
:1009600001A9E3E00A8828686949D2B2FFF718FFB5
:10097000E8E03388201C2B71FFF776FD201CFFF781
:100980008DFDDFE0291C01C90122CFE06149002370
:100990000B8028680222CAE05E4900220A8018887B
:1009A000502210405C4A10701E880F203040188082
:1009B0001888032800D9C1E012781B8808335B012E
:1009C000E418A379002A01D09B0600E0DB06DB0FC8
:1009D0000B8028680222A9E019887F2291434E4AA1
:1009E000C9B2117018880F2101401980318800297F
:1009F00000D0A3E01988002900D19FE019880329BD
:100A000000D99BE012781B8808335B01E318002AA9
:100A100002D020225A718DE0102159718AE002889B
:100A20007F239A433C4BD2B21A7001880F220A40AE
:100A300002803288002A00D080E00288002A00D19B
:100A40007CE00288032A00D978E01B78002B1FD0B5
:100A5000038808335B01E3189B799A066AD50388FB
:100A6000202208335B01E3181A71038808335B0105
:100A7000E318DB795F065DD50388402208335B010C
:100A8000E318DA710388022208335B01E3181EE0E1
:100A9000038808335B01E3189B79D9064AD503889C
:100AA000102208335B01E3181A71038808335B01D5
:100AB000E318DB799A063DD50388202208335B01D1
:100AC000E318DA710388012208335B01E3181A7115
:100AD00030E0C046980000207F0000208200002007
:100AE00084000020860000207C000020020300001B
:100AF0000103000021200000A121000021220000AC
:100B00006816000004000020511600004016000086
:100B100044160000800000207E0000200B88082280
:100B20002868934201D80A8892B207490023FFF748
:100B30000BFC07E0201CFFF797FC03E0201C0121C1
:100B4000FFF788FCF7BDC0464800002007B5054BFD
:100B50000122019001A91868131CFFF7F5FB012081
:100B60000EBDC0461C02002013B5054B6C46073471
:100B70001868211C0122FFF72FFC207816BDC04603
:100B80001C02002010B5074C201CFFF709FB031CBA
:100B90000020834205D022684823FF33D05C012324
:100BA000184010BD1C02002010B5054A0C1C031C87
:100BB000191C10680123221CFFF7C6FB201C10BD66
:100BC0001C02002070B5084C061C201C0D1CFFF7F1
:100BD000E7FA0023984205D02068311C2A1CFFF751
:100BE000FBFB031C181C70BD1C020020F8B50C4C4C
:100BF000051C201C0E1CFFF7D3FA0023271C341CF5
:100C000098420AD0002C07D0291C221C3868FFF714
:100C1000E3FB241A2D18F5E7331C181CF8BDC04659
:100C20001C02002008B5031C081C111C9847044B2B
:100C3000802212055A61034B64221A8008BDC04607
:100C4000002800408C000020012805D1054B064AF1
:100C50001A60064B187004E0002802D1044A014BC8
:100C60001A6070478C0200209C160000940000203F
:100C7000E816000030B50A1C1C4985B00978031C31
:100C800000292AD0042A01D1006804E0022A01D1F7
:100C9000008800E00078520004A98B180B3B9C1AD6
:100CA000A3420BD00F210140092902D83025294346
:100CB00000E0373119700009013BF1E701A9302349
:100CC0000B7078234B700A208B1898700D20D87009
:100CD000074B04321B68D86803E005490968C868F7
:100CE000191CFFF79FFF05B030BDC04688000020EB
:100CF0008C02002072B6EFF30883044A1360036885
:100D000083F30888436818477047C0469002002064
:100D10000E4B1A88002A09D01A88013A92B21A801A
:100D2000002A03D180220A4B12059A61094B1A88C6
:100D3000002A09D01A88013A92B21A80002A03D1F7
:100D40008022034B12059A617047C0468C00002038
:100D5000002800408A000020F0B591B008A9CF4AD1
:100D60000B1C31CA31C351CA51C360CA60C3CC4BDA
:100D7000CC489A687A255203520F92005258CA49B9
:100D800002609C68A4B262430C60C84900240A60F7
:100D9000C74A1460C74C2570C74CC84D2368281C2F
:100DA0001B6940219847002806D0C54B80221205B8
:100DB0005A61C44B64221A80C34B00221860C34B93
:100DC0001D60C34BC24DC04F1A602A683B689A42EF
:100DD000E2D2BE4B1B681A78FF2A00D11FE2232AF9
:100DE00000D0F6E1BB4E3378002B06D0B24BBA49A7
:100DF0001B680222D868FFF715FFAE4B1B78532BF8
:100E000040D13B682A6893421ED9B04801322A601B
:100E10009A1AB24B01681B6801310160B04E9A42C8
:100E200001D2326000E03360A1483268006804906B
:100E300000F0E2FB336829685A182A60A34A166852
:100E4000F1181160A74A13702B68013B2B609F4B70
:100E50001A68013A1A60A34BA04A1B7811688B42AA
:100E60000ED222689248C91A0068926990470028F9
:100E700006D0934B802212055A61924B64221A804D
:100E8000C04694E1522B0ED18948944A23680068E9
:100E900011685B6903909847894B802212055A615B
:100EA0006422914B0DE04F2B05D1814B8B4A1B687F
:100EB00012681A707BE1482B05D17D4B874A1B686D
:100EC00012681A8073E1572B05D1794B834A1B684E
:100ED00012681A606BE16F2B03D1754B0121186802
:100EE00007E0682B08D1724B7C481B6802211B88E5
:100EF0000360FFF7BFFE5AE1772B06D16C4B7748B2
:100F00001B6804211B680360F3E7472B13D1734B65
:100F10001868FFF7EFFE754B1B6883F3088862B60D
:100F2000734B1B78002B00D141E1634B06201B68FB
:100F30001B6898473BE1542B04D1012333705E4B6F
:100F40001B6864E04E2B0CD13378002B06D15A4B32
:100F500061491B680222D868FFF764FE00233370E2
:100F600025E1562B57D123686249D8680122FFF743
:100F700059FE23686049D8680322FFF753FE5F4D8E
:100F80002368291CD8680122FFF74CFE23685C49BE
:100F9000D8680D22FFF746FE2368291CD868012275
:100FA000FFF740FE494F4A4D5649002339602B60F8
:100FB0003A1C281C13685E1C16601B780593002BD6
:100FC00003D0036801330360F4E73B4E2A683368BB
:100FD000D868FFF727FE33684849D8680122FFF731
:100FE00021FE0599296048493960384A1368581C20
:100FF00010601B78002B04D0354B1A6801321A6040
:10100000F3E733682A68D868FFF70CFE3368D868BE
:1010100031490222C9E0314A582B17D1214E234DC4
:10102000366813682A68B10093420AD21C4D5808EA
:10103000E861364828801A4D287DC607FBD55B1825
:10104000F2E71D4B32491B68D868ADE0592B7CD1C3
:101050001268174B2F49002A02D11B680B606FE002
:101060000F4D086819686B680D4E8025AB439208D8
:101070007360002A64D0284B094D2B80084E337DC5
:10108000DD07FBD50023074D2D680195AD08AB4268
:1010900046D3224D024E358049E0C0467C16000002
:1010A00000400041440200203C02002038020020A1
:1010B00088020020340200208C0200204802002018
:1010C000002800408A0000202C020020300200206E
:1010D0004002002088000020DC160000940200205E
:1010E00098020020280200208C000020900200209E
:1010F00094000020B8160000E1160000BA160000A7
:1011000004170000BC160000C816000002A5FFFF6F
:10111000D11600009000002044A5FFFF04A5FFFFAA
:101120009342B6D09D00465901334E51ABE7404E35
:10113000357DEE07FBD59D0049194019D21A98E775
:101140003C4B3D491B68D8682EE05A2B2FD13B4BB6
:1011500017681D680026EF19BD4206D02878311C9B
:1011600000F00EF90135061CF6E7324B34491B68D6
:101170000122D868FFF756FD07230F223240111CC9
:1011800036093031092A00DD07311820C0186A46B7
:101190008154013BF1D2236806A9D8680822FFF7E1
:1011A00041FD23682749D8680322FFF73BFD264B02
:1011B0007A221A70254B00221A60254B1B78934225
:1011C0002DD01C4B23491B680122D868FFF72AFD4C
:1011D00025E0111C3039C8B21C4B092804D81D6801
:1011E0002A01114319601AE0111C4139052903D85D
:1011F0001E68373A310106E0111C6139052904D80F
:101200001868573A01010A4308E02C2A03D10B4A17
:101210001968116001E00C490A7000221A600E4B37
:101220001A6801321A600D4B1A680132CAE5C046CD
:10123000004000418C020020D516000088020020EA
:10124000D9160000DB1600003402002094020020B2
:1012500088000020DF16000040020020300200203D
:1012600038B51E4B01241A780F2122431A701C4BEB
:101270001A788A431A701878022210431870194895
:1012800005782C43047018780140197019782020D3
:1012900001431970144B1F20D9690143D961196AA0
:1012A0000A431A62114B40221A601A685106FCD593
:1012B0008420C422C0050E499203FEF725FF0D4A83
:1012C000002313700C4A13700C4A13700C4A1370ED
:1012D0000C4A13700C4A137038BDC0464A280040AF
:1012E000352800404B28004000040040C81800404A
:1012F0002AF600009C020020230300209D0200200B
:10130000A0020020240300202103002008B5C1B260
:101310008420C005FEF726FF012008BD8423DB05DD
:10132000187E4007C00F704708B5FFF7F7FF002889
:10133000FBD08420C005FEF71BFF08BD08B5FFF7F2
:10134000EDFF0023984205D0FFF7EEFF031C233B7F
:101350005A425341181C08BD70B5041C0D1C461898
:10136000B44204D02078FFF7D1FF0134F8E7281CFD
:1013700070BD10B5041CFFF7D7FF2070012010BD11
:101380000B0A5840034B4000C05A0902484080B243
:101390007047C04612170000F7B50024051C0F1C4B
:1013A000261CBC4220D0FFF7BFFF114BC0B21B78F8
:1013B0000190002B1AD1311CFFF7E2FF0D4B061CE8
:1013C0001A88002A04D10C4A11782A1C002907D057
:1013D00001996A1C2970802F02D11988013919805E
:1013E0000134A4B2151CDCE7301C00E00120FEBD76
:1013F000210300209E02002022030020F0B53E4E73
:1014000085B0002203900C1C32703C4B914201D1FC
:10141000012201E03A490C801A707F231C4201D05E
:1014200080349C43FFF780FF3378C0B2002B07D095
:1014300000253570FFF778FF3378C0B2AB4236D164
:10144000432803D0712853D01528EBD101230093F2
:101450000120FFF75BFF0098FFF758FF00998025F8
:10146000C843C0B2FFF752FF039B00270293244AF0
:101470001388002B1DD1214901930978002918D127
:101480000198FFF743FF391C0198FFF779FF013DF1
:10149000071C002DEBD1000AC0B2FFF737FFF8B2EE
:1014A000FFF734FFFFF740FF3378002B0AD0357089
:1014B0001FE00299013B09781380029B01910133DF
:1014C0000293DDE7C0B2062807D1009B03990133E0
:1014D000DBB280310093803C0391002CB8D1042012
:1014E000FFF714FFFFF720FF044B01251C7000E0FD
:1014F0000025281C05B0F0BD210300202203002098
:101500009E020020F0B5384C87B000230190237074
:10151000994201D1012301E0344A1180344A642602
:1015200013704320FFF7F2FE324FFFF7F7FE00285B
:1015300003D1002F03D0013FF7E7002F03D1013E75
:10154000002EEED14DE00125FFF7EEFE2378002BB3
:1015500038D1C0B20290012805D004283DD1062020
:10156000FFF7D4FE39E005AE0221301CFFF714FF6F
:1015700001988021FFF710FF23780390002B18D1EA
:10158000FFF7D2FE0702FFF7CFFEBFB223783F1866
:10159000BFB2012B0DD0039B9F4207D13378AB42E2
:1015A00004D1EB437278DBB29A4204D01820FFF7E3
:1015B000ADFE002303E00620FFF7A8FE029B227881
:1015C000002A02D0002626700BE0012B05D1019ADB
:1015D0006B1C8032DDB20192B6E7054A002313701E
:1015E0000126301C07B0F0BD210300209E02002020
:1015F0002203002000350C0010B50023934203D0D5
:10160000CC5CC4540133F9E710BD031C821893422B
:1016100002D019700133FAE770470023C25C01332E
:10162000002AFBD1581E7047F8B5C046F8BC08BC6C
:101630009E467047F8B5C046F8BC08BC9E46704749
:101640000403090445532047656172204C74642EDD
:1016500000496E647573747275696E6F20342D3233
:10166000306D412E6B6572001201000202000040D5
:10167000782E4E0000020102000100000800000068
:10168000100000002000000040000000800000006A
:101690000001000000020000000400000D13000023
:1016A000291300001D1300005913000073130000DC
:1016B000FD13000005150000760020004F63742024
:1016C000313520323031380032313A35323A353521
:1016D00000580A0D00590A0D005A00230A0D003E59
:1016E00000322E30000000004D0B0000690B00009E
:1016F000850B0000A90B0000C50B0000A90B000022
:10170000ED0B00005B41726475696E6F3A58595A6F
:101710005D0000002110422063308440A550C66067
:10172000E770088129914AA16BB18CC1ADD1CEE19E
:10173000EFF13112100273325222B5529442F77215
:10174000D662399318837BB35AA3BDD39CC3FFF3EE
:10175000DEE36224433420040114E664C774A44425
:1017600085546AA54BB528850995EEE5CFF5ACC53E
:101770008DD55336722611163006D776F6669556F5
:10178000B4465BB77AA719973887DFF7FEE79DD78E
:10179000BCC7C448E5588668A77840086118022885
:1017A0002338CCC9EDD98EE9AFF9488969990AA9DE
:1017B0002BB9F55AD44AB77A966A711A500A333A55
:1017C000122AFDDBDCCBBFFB9EEB799B588B3BBB2E
:1017D0001AABA66C877CE44CC55C222C033C600CE5
:1017E000411CAEED8FFDECCDCDDD2AAD0BBD688D7E
:1017F000499D977EB66ED55EF44E133E322E511E35
:10180000700E9FFFBEEFDDDFFCCF1BBF3AAF599FCD
:10181000788F8891A981CAB1EBA10CD12DC14EF16D
:101820006FE18010A100C230E320045025404670D3
:101830006760B9839893FBA3DAB33DC31CD37FE3FE
:101840005EF3B1029012F322D23235421452776223
:101850005672EAB5CBA5A89589856EF54FE52CD5CE
:101860000DC5E234C324A014810466744764245473
:101870000544DBA7FAB79987B8975FE77EF71DC7DE
:101880003CD7D326F2369106B016576676761546C3
:1018900034564CD96DC90EF92FE9C899E9898AB92E
:1018A000ABA94458654806782768C018E108823813
:1018B000A3287DCB5CDB3FEB1EFBF98BD89BBBAB3E
:1018C0009ABB754A545A376A167AF10AD01AB32A63
:1018D000923A2EFD0FED6CDD4DCDAABD8BADE89D8E
:1018E000C98D267C076C645C454CA23C832CE01CB3
:1018F000C10C1FEF3EFF5DCF7CDF9BAFBABFD98F1E
:10190000F89F176E367E554E745E932EB23ED10E02
:08191000F01E000000000000C1
:10191800011400000902430002010080320904009A
:101928000001020200000524001001042402000541
:10193800240600010524010001070583030800FFB0
:1019480009040100020A00000007058102400000A6
:10195800070502024000000000C201000000080064
:0C196800690000004100000000000000C9
:040000030000062DC6
:00000001FF
